{
  "contractName": "Inheritance",
  "abi": [
    {
      "constant": true,
      "inputs": [],
      "name": "numberOfVotes",
      "outputs": [
        {
          "name": "",
          "type": "uint256"
        }
      ],
      "payable": false,
      "stateMutability": "view",
      "type": "function"
    },
    {
      "constant": true,
      "inputs": [],
      "name": "moneyAmmount",
      "outputs": [
        {
          "name": "",
          "type": "uint256"
        }
      ],
      "payable": false,
      "stateMutability": "view",
      "type": "function"
    },
    {
      "constant": true,
      "inputs": [
        {
          "name": "",
          "type": "address"
        }
      ],
      "name": "trustGroupVoting",
      "outputs": [
        {
          "name": "vote",
          "type": "bool"
        },
        {
          "name": "isVoter",
          "type": "bool"
        }
      ],
      "payable": false,
      "stateMutability": "view",
      "type": "function"
    },
    {
      "constant": true,
      "inputs": [],
      "name": "timeFrame",
      "outputs": [
        {
          "name": "",
          "type": "uint256"
        }
      ],
      "payable": false,
      "stateMutability": "view",
      "type": "function"
    },
    {
      "constant": true,
      "inputs": [],
      "name": "voteChecker",
      "outputs": [
        {
          "name": "",
          "type": "uint8"
        }
      ],
      "payable": false,
      "stateMutability": "view",
      "type": "function"
    },
    {
      "constant": true,
      "inputs": [],
      "name": "receiver",
      "outputs": [
        {
          "name": "",
          "type": "address"
        }
      ],
      "payable": false,
      "stateMutability": "view",
      "type": "function"
    },
    {
      "constant": true,
      "inputs": [],
      "name": "giver",
      "outputs": [
        {
          "name": "",
          "type": "address"
        }
      ],
      "payable": false,
      "stateMutability": "view",
      "type": "function"
    },
    {
      "inputs": [
        {
          "name": "_giver",
          "type": "address"
        },
        {
          "name": "_receiver",
          "type": "address"
        },
        {
          "name": "_numberOfVotes",
          "type": "uint256"
        },
        {
          "name": "_trustGroup",
          "type": "address[5]"
        }
      ],
      "payable": true,
      "stateMutability": "payable",
      "type": "constructor"
    },
    {
      "constant": false,
      "inputs": [
        {
          "name": "_vote",
          "type": "bool"
        }
      ],
      "name": "trustGroupVote",
      "outputs": [],
      "payable": false,
      "stateMutability": "nonpayable",
      "type": "function"
    },
    {
      "constant": false,
      "inputs": [],
      "name": "withdraw",
      "outputs": [],
      "payable": false,
      "stateMutability": "nonpayable",
      "type": "function"
    }
  ],
  "bytecode": "0x60806040526301e133804201600555604051610100806107968339810180604052810190808051906020019092919080519060200190929190805190602001909291909190505060008034118015610058575060058011155b8015610065575060058311155b151561007057600080fd5b3460028190555084600160006101000a81548173ffffffffffffffffffffffffffffffffffffffff021916908373ffffffffffffffffffffffffffffffffffffffff160217905550836000806101000a81548173ffffffffffffffffffffffffffffffffffffffff021916908373ffffffffffffffffffffffffffffffffffffffff160217905550826004819055505b60058160ff16101561018957600160066000848460ff1660058110151561012357fe5b602002015173ffffffffffffffffffffffffffffffffffffffff1673ffffffffffffffffffffffffffffffffffffffff16815260200190815260200160002060000160016101000a81548160ff0219169083151502179055508080600101915050610100565b50505050506105f98061019d6000396000f300608060405260043610610099576000357c0100000000000000000000000000000000000000000000000000000000900463ffffffff1680630e7d490d1461009e5780631c2bf5b9146100c95780633ccfd60b146100f45780636c37600d1461010b5780638b13b64b14610171578063c95561331461019c578063e7d1d64b146101cb578063f7260d3e146101fc578063fb775b4614610253575b600080fd5b3480156100aa57600080fd5b506100b36102aa565b6040518082815260200191505060405180910390f35b3480156100d557600080fd5b506100de6102b0565b6040518082815260200191505060405180910390f35b34801561010057600080fd5b506101096102b6565b005b34801561011757600080fd5b5061014c600480360381019080803573ffffffffffffffffffffffffffffffffffffffff1690602001909291905050506103a0565b6040518083151515158152602001821515151581526020019250505060405180910390f35b34801561017d57600080fd5b506101866103de565b6040518082815260200191505060405180910390f35b3480156101a857600080fd5b506101c96004803603810190808035151590602001909291905050506103e4565b005b3480156101d757600080fd5b506101e061056f565b604051808260ff1660ff16815260200191505060405180910390f35b34801561020857600080fd5b50610211610582565b604051808273ffffffffffffffffffffffffffffffffffffffff1673ffffffffffffffffffffffffffffffffffffffff16815260200191505060405180910390f35b34801561025f57600080fd5b506102686105a7565b604051808273ffffffffffffffffffffffffffffffffffffffff1673ffffffffffffffffffffffffffffffffffffffff16815260200191505060405180910390f35b60045481565b60025481565b600454600360009054906101000a900460ff1660ff16101515156102d957600080fd5b6000809054906101000a900473ffffffffffffffffffffffffffffffffffffffff1673ffffffffffffffffffffffffffffffffffffffff163373ffffffffffffffffffffffffffffffffffffffff1614151561033457600080fd5b6000809054906101000a900473ffffffffffffffffffffffffffffffffffffffff1673ffffffffffffffffffffffffffffffffffffffff166108fc6002549081150290604051600060405180830381858888f1935050505015801561039d573d6000803e3d6000fd5b50565b60066020528060005260406000206000915090508060000160009054906101000a900460ff16908060000160019054906101000a900460ff16905082565b60055481565b600660003373ffffffffffffffffffffffffffffffffffffffff1673ffffffffffffffffffffffffffffffffffffffff16815260200190815260200160002060000160019054906101000a900460ff16151561043f57600080fd5b801515600660003373ffffffffffffffffffffffffffffffffffffffff1673ffffffffffffffffffffffffffffffffffffffff16815260200190815260200160002060000160009054906101000a900460ff161515141515156104a157600080fd5b80156104de576003600081819054906101000a900460ff168092919060010191906101000a81548160ff021916908360ff16021790555050610512565b6003600081819054906101000a900460ff16809291906001900391906101000a81548160ff021916908360ff160217905550505b80600660003373ffffffffffffffffffffffffffffffffffffffff1673ffffffffffffffffffffffffffffffffffffffff16815260200190815260200160002060000160006101000a81548160ff02191690831515021790555050565b600360009054906101000a900460ff1681565b6000809054906101000a900473ffffffffffffffffffffffffffffffffffffffff1681565b600160009054906101000a900473ffffffffffffffffffffffffffffffffffffffff16815600a165627a7a72305820e5626f9f10a07e94955c0c2399773abfd19281f475ab6b44a549026123693b820029",
  "source": "//We need accounts (at least 2)\n//the amount of money \n//time frame\n//inheriter is only person able to take money\n//Changable till your dead\n//trust group (at least 3 of 5)\n\n//every smart contract starts with a compiler version\npragma solidity 0.4.24;\n\ncontract Inheritance {\n    address public receiver;\n    address public giver;\n    \n    uint public moneyAmmount;\n    uint8 public voteChecker;\n    uint public numberOfVotes;\n    uint public timeFrame = now + (365 days);\n    \n    struct Voters {\n        bool vote;\n        bool isVoter;\n    }\n    \n    mapping(address => Voters) public trustGroupVoting;\n    \n    constructor(\n        address _giver,\n        address _receiver,\n        uint _numberOfVotes,\n        address[5] _trustGroup\n    ) \n        public \n        payable \n    {\n        require(msg.value > 0 && _trustGroup.length <= 5 && _numberOfVotes <= 5);\n        \n        moneyAmmount = msg.value;\n        giver = _giver;\n        receiver = _receiver;\n        numberOfVotes = _numberOfVotes;\n        \n        for(uint8 n; n < _trustGroup.length; n++) {\n            trustGroupVoting[_trustGroup[n]].isVoter = true; \n        }\n    }\n    \n    function trustGroupVote(bool _vote) public {\n        require(trustGroupVoting[msg.sender].isVoter );\n        \n        require(trustGroupVoting[msg.sender].vote != _vote);\n        \n        if (_vote) {\n            voteChecker++;    \n        } else {\n            voteChecker--;\n        }\n        \n        trustGroupVoting[msg.sender].vote = _vote;\n    }\n    \n    function withdraw() public {\n        require( voteChecker >= numberOfVotes);\n        require(msg.sender == receiver);\n        \n        receiver.transfer(moneyAmmount);\n    }\n}\n",
  "sourcePath": "/Users/loki/Workspace/Inheritance/contracts/Inheritance.sol",
  "compiler": {
    "name": "solc",
    "version": "0.4.24+commit.e67f0147.Emscripten.clang"
  },
  "schemaVersion": "2.0.1",
  "updatedAt": "2018-12-13T18:14:22.781Z"
}